:020000040000FA
:060000000A128A110C280F
:10000800FE00030EF2000A08F3000A128A111328F0
:100018000A128A110F2883010A128A118B28831267
:1000280003130C1F1828192884281F0CF000700CC3
:100038000F390C3A031D212822284B281E08F000EE
:100048000310700C7C3E95001E080139F000F00E7C
:10005800F00D17087006DF39700697008316031332
:100068001E08F00007300310F00CFF3E031D372870
:100078007008F100F10E8312031317087106EF39A7
:10008800710697001F08C33928389F007C281F0C69
:10009800F000700C0F390A3A031D532854287C28A5
:1000A8001E08F0000310700C7C3E9B001E080139EE
:1000B800F000F00EF00D1D087006DF3970069D0087
:1000C800831603131E08F00007300310F00CFF3EE0
:1000D800031D69287008F100F10E831203131D082F
:1000E8007106EF3971069D001F08C33930389F002B
:1000F8002130F000F00B7E28831203130C139F1499
:1001080073088A00720E8300FE0E7E0E090070309E
:10011800831603138F040F141430831603178900F2
:10012800880103308316031386008501870188013F
:1001380083120313850186018701880133309F00EC
:10014800831603139F012130F400F40BA9288316AA
:1001580003130715FA3092003F30831203139705F3
:100168001708F0390C3897000F309500CF309705F5
:10017800831603138714831203131D08F0390C38F0
:100188009D000F309B009D128C10033092041215B5
:100198008C1CCF28D028CC288C1083160313071169
:1001A80087108B178B150B170C17D9280A128A1171
:0201B8000C2811
:04400E00C430FF3F7C
:00000001FF
